:020000000B28CB
:10000800DE00030E8312A2000A08A30032280C287F
:100018008312A001A101830111281B3083168500DA
:100028008312A001A1018730831681008312810108
:10003800E0308B0000302102643003192002031CD9
:10004800262827281E28851A2A282B282D28851691
:100058002E288512A001A1011E280B280B1D35286A
:1000680036283F280130A0070318A10A0030A1074D
:100078000B113D30810023088A00220E8300DE0E1A
:040088005E0E0900FF
:00000001FF
