:020000000D28C9
:10000800DE00030E8312B3000A08B4005F08B500CF
:1000180015280E288313203084002D302C218301CD
:10002800FE280130DF005F08AC0724032504031D08
:100038001E281F2825280130AA070318AB0A0030FC
:10004800AB072C03031D29282A2888289F149F18EA
:100058002E282F282B281E08A90083161E08831275
:10006800A8002908AE002808AD000530AF00003010
:10007800B000D82083122E08A7002D08A600270854
:10008800803ADF0081305F02031D4C28F5302602DC
:10009800031C4F2850285C2801308312AD00003023
:1000A800AE001B2101308312A4000030A500862871
:1000B80083122708803ADF0080305F02031D66281C
:1000C80065302602031C69286A28862883122708B7
:1000D800803ADF0081305F02031D7428F530260264
:1000E800031877287828862800308312AD00AE00E0
:1000F8001B218312A401A5010519832884288628B9
:10010800A201A3018312AC01EA302A0604300319C4
:100118002B06031D902891289E280030AD00AE00C4
:100128001B218312A401A501AA01AB010130A20081
:100138000030A30022032304031DA328A428CE28EB
:100148000130A0070318A10A0030A1072108803A4E
:10015800DF0080305F02031DB3280F302002031830
:10016800B628B728BA2883120515CE288312210885
:10017800803ADF0080305F02031DC4281E30200251
:100188000318C728C828CB2883120511CE28831244
:10019800A001A1010B118101350834088A00330E32
:1001A8008300DE0E5E0E09008312B101B2012D1C20
:1001B800DE28DF28E5282F08B1070318B20A30081F
:1001C800B20701300310AF0DB00DFF3E031DE62846
:1001D80001300310AE0CAD0CFF3E031DED282D08B9
:1001E8002E04031DF828F928DB283208AE00310850
:1001F800AD0008000130831685000730831299008E
:10020800113083169F00803083129F001F148316BD
:10021800950183128101FF30831690008730810099
:10022800E0308B0083120511851219290D288312DD
:100238002D082E04031D21292229242985122B2962
:100248002D032E04031D29292A292B298516080088
:1002580064008001840A04060319003404062D2969
:02400E008431FB
:00000001FF
