:020000000D28C9
:10000800DE00030E8312AF000A08B0005F08B100DB
:100018001A280E288312A001A101A201A301A4019C
:10002800A501A601A701A8018301C9280130DF00A5
:100038005F08A80720032104031D232824282A2851
:100048000130A6070318A70A0030A7072803031DD5
:100058002E282F2889289F149F18332834283028C1
:100068001E08A50083161E088312A4002508AA00EE
:100078002408A9000530AB000030AC00A32083128F
:100088002A08A3002908A2002308803ADF0081304B
:100098005F02031D5128F5302202031C54285528FD
:1000A800612801308312A9000030AA00E62001303F
:1000B8008312A0000030A100872883122308803A09
:1000C800DF0080305F02031D6B2865302202031CAD
:1000D8006E286F28872883122308803ADF00813032
:1000E8005F02031D7928F530220203187C287D2839
:1000F80087280430831285060030A900AA00E6206C
:100108008312A001A1018312A801643026062704E6
:10011800031D8F28902899280030A900AA00E620FE
:100128008312A001A101A601A7010B1181013108C9
:1001380030088A002F0E8300DE0E5E0E090083123F
:10014800AD01AE01291CA928AA28B0282B08AD07A3
:100158000318AE0A2C08AE0701300310AB0DAC0D26
:10016800FF3E031DB12801300310AA0CA90CFF3E65
:10017800031DB82829082A04031DC328C428A62853
:100188002E08AA002D08A900080001308316850052
:10019800073083129900113083169F008030831234
:1001A8009F001F148316950183128101FF30831667
:1001B800900087308100E0308B0083120511851292
:1001C800E4280D28831229082A04031DEC28ED28A9
:1001D800EF288512F62829032A04031DF428F52898
:0601E800F6288516080050
:02400E008431FB
:00000001FF
