:020000000D28C9
:10000800DE00030E8312BF000A08C0005F08C100AB
:100018001D280E28B121C200B221C300B321C4009B
:10002800B421C5008313203084003930A92183010D
:100038007B290130A8070318A90A0030A907300353
:100048003104031D2828292833280130B60703184E
:10005800B70A0030B7070130C4000030C5002403D8
:100068002504031D382839284128A401A501013099
:10007800A6070318A70A0030A7072908803ADF0057
:1000880080305F02031D4A282F302802031C4D28A8
:100098004E28882801308312A0000030A1000130CA
:1000A800AE000030AF00A801A90126032704031DF4
:1000B8005E285F2864281430C2000030C3008828F6
:1000C800023026062704031D6A286B28702828306A
:1000D800C2000030C3008828033026062704031D09
:1000E800762877287C283C30C2000030C300882856
:1000F800043026062704031D8228832888285030C8
:10010800C2000030C300882883129F149F188D28CE
:100118008E288A281E08B50083161E088312B4008C
:100128003508BA003408B9000530BB000030BC00FF
:10013800552183123A08B3003908B2003308803ACF
:10014800DF0081305F02031DAB28F5303202031C4B
:10015800AE28AF28B92801308312B0000030B100B2
:100168000130A2000030A300F12883123308803A3E
:10017800DF0080305F02031DC32865303202031C94
:10018800C628C728E42883123308803ADF00813064
:100198005F02031DD128F53032020318D428D52870
:1001A800E42800308312B900BA0098218312B00104
:1001B800B1010519E028E128F128AE01AF01F128C5
:1001C800831222032304031DEA28EB28EF280130B9
:1001D800A4000030A500A201A30137084306031DAF
:1001E800F72836084206031DFA28FB2811292003A0
:1001F8002104031D002901291129A001A1010130B1
:10020800B9000030BA0098218312B001B101B601DB
:10021800B7010130AE000030AF002E032F04031DDC
:10022800162917294A290130AC070318AD0A0030EE
:10023800AD072D08803ADF0080305F02031D2629B4
:100248000F302C02031829292A293229831205156F
:100258000130B9000030BA0098214A2983122D08CC
:10026800803ADF0080305F02031D3C291E302C02DB
:1002780003183F2940294729831205110030B90086
:10028800BA0098214A298312AC01AD010B118312DF
:100298008101410840088A003F0E8300DE0E5E0E91
:1002A80009008312BD01BE01391C5B295C29622942
:1002B8003B08BD070318BE0A3C08BE0701300310FF
:1002C800BB0DBC0DFF3E031D632901300310BA0CA2
:1002D800B90CFF3E031D6A2939083A04031D752924
:1002E800762958293E08BA003D08B90008000130AF
:1002F80083168500073083129900113083169F00FA
:10030800803083129F001F14831695018312810188
:10031800FF308316900087308100E0308B00831215
:100328000511851296290D28831239083A04031DF0
:100338009E299F29A1298512A82939033A04031D5A
:10034800A629A729A8298516080064008001840A1F
:100358000406031900340406AA29033400340134BE
:0203680000345F
:02400E008431FB
:00000001FF
