:020000000D28C9
:10000800DE00030E8312C5000A08C6005F08C70099
:1000180019280E281322CA001422CB00831320307B
:10002800840043300B2283014A290B1D1C281D28FC
:1000380042290130B4070318B50A0030B50701306A
:10004800B2070318B30A0030B3073C03031D2D2879
:100058002E286C280130AA070318AB0A0030AB071A
:100068002A084A02C3002B08031C2B0A4B02C400AF
:100078004408803ADF0080305F02031D45280130C4
:1000880043020318482849286C288312AA01AB01A7
:100098000130A4070318A50A0030A5072508803AEF
:1000A800DF0080305F02031D5B2890302402031CB0
:1000B8005E285F286C288312CA01CB01BC01380373
:1000C800031D672868286C280130BA00B8016C281D
:1000D80083123A03031D7128722894280130A60759
:1000E8000318A70A0030A707BE012708803ADF00D7
:1000F8008B305F02031D8228B93026020318852839
:1001080086288A2801308312B90094288312B901FD
:100118000130BC00AE01AF01B801A601A701BA01C8
:100128003508803ADF0080305F02031D9D28C83003
:100138003402031CA028A128CA2883122F08803A59
:10014800DF0080305F02031DAB2801302E02031C44
:10015800AE28AF28CA2883123E03031DB428B52849
:10016800CA28FF30AE070318AF0AFF30AF074003B5
:10017800031DBF28C028C328C001B901C728013002
:10018800C0000130B900B401B501182983122F0845
:10019800803ADF0080305F02031DD42801302E0230
:1001A8000318D728D828182983123E03031DDD28F1
:1001B800DE28182904303B06031DE328E428E92833
:1001C8003030CA007530CB000B2903303B06031DC5
:1001D800EE28EF28F428E430CA005730CB000B296A
:1001E80002303B06031DF928FA28FF289830CA0078
:1001F8003A30CB000B293B03031D032904290929A5
:100208004C30CA001D30CB000B29CA01CB013C0879
:10021800031D0F29102918293A08031D1429152927
:1002280018290130BC00BE0183124003031D1D299B
:100238001E2923293C0803192229232933293C0391
:10024800031D272928292E294A084B04031D2D2977
:100258002E2933293903031D322933293D298516CF
:100268003903031D382939293B2905153F2905116B
:100278003F29851205110B110630810047084608F1
:100288008A00450E8300DE0E5E0E090007308312D9
:100298009900213083169F00813083129F008316B6
:1002A800950183128101FF3083169000813081000F
:1002B800E0308B000330850083123308803ADF007A
:1002C80081305F02031D6A292C303202031C6D291C
:1002D8006E29DE298312B201B301FE218312490877
:1002E800B1004808B000003031025B300319300219
:1002F800031C7F298029B6290430310200300319F4
:100308003002031888298929B6293E08031D8D293A
:100318008E29B6293C08031D92299329B629013054
:10032800C1070318C20A0030C2070130B8004103F0
:100338004204031DA029A129A4290130BD00B62922
:100348004208803ADF0080305F02031DAD29053086
:100358004102031CB029B129B62904308312C10017
:100368000030C20083123D03031DBB29BC29DE29CE
:100378000130AC070318AD0A0030AD072D08803AEC
:10038800DF0080305F02031DCB2910302C02031CD4
:10039800CE29CF29DE298312BD01AC01AD0103109E
:1003A800410DAE00420DAF004108BB00C101C201C2
:1003B8000130BE000030831231025B300319300275
:1003C8000318E729E829602900303102153003199C
:1003D8003002031CF029F1296029BC01BE01AC01DF
:1003E800AD01AE01AF01C101C201AE01AF01BA0159
:1003F80060290D2883129F149F18032A042A002AB3
:100408001E08C90083161E088312C800080064006D
:100418008001840A04060319003404060C2AD03427
:02042800073497
:02400E009431EB
:00000001FF
