:020000000D28C9
:10000800DE00030E8312C7000A08C8005F08C90093
:1000180019280E284122CC004222CD00831320301B
:1000280084004530392283014A290B1D1C281D28CC
:1000380042290130B6070318B70A0030B707013064
:10004800B4070318B50A0030B5073E03031D2D2871
:100058002E286C280130AC070318AD0A0030AD0714
:100068002C084C02C5002D08031C2D0A4D02C600A1
:100078004608803ADF0080305F02031D45280130C2
:1000880045020318482849286C288312AC01AD01A1
:100098000130A6070318A70A0030A7072708803AE7
:1000A800DF0080305F02031D5B2890302602031CAE
:1000B8005E285F286C288312CC01CD01BE013A036B
:1000C800031D672868286C280130BC00BA016C2819
:1000D80083123C03031D7128722894280130A80755
:1000E8000318A90A0030A907C0012908803ADF00CF
:1000F8008B305F02031D8228B93028020318852837
:1001080086288A2801308312BB0094288312BB01F9
:100118000130BE00B001B101BA01A801A901BC01BA
:100128003708803ADF0080305F02031D9D28C83001
:100138003602031CA028A128CA2883123108803A55
:10014800DF0080305F02031DAB2801303002031C42
:10015800AE28AF28CA2883124003031DB428B52847
:10016800CA28FF30B0070318B10AFF30B1074203AD
:10017800031DBF28C028C328C201BB01C7280130FE
:10018800C2000130BB00B601B7011829831231083B
:10019800803ADF0080305F02031DD428013030022E
:1001A8000318D728D828182983124003031DDD28EF
:1001B800DE28182904303D06031DE328E428E92831
:1001C8003030CC007530CD000B2903303D06031DBF
:1001D800EE28EF28F428E430CC005730CD000B2966
:1001E80002303D06031DF928FA28FF289830CC0074
:1001F8003A30CD000B293D03031D032904290929A1
:100208004C30CC001D30CD000B29CC01CD013E086F
:10021800031D0F29102918293C08031D1429152925
:1002280018290130BE00C00183124203031D1D2995
:100238001E2923293E0803192229232933293E038D
:10024800031D272928292E294C084D04031D2D2973
:100258002E2933293B03031D322933293D298516CD
:100268003B03031D382939293B2905153F29051169
:100278003F29851205110B110630810049084808ED
:100288008A00470E8300DE0E5E0E090007308312D7
:100298009900213083169F00813083129F008316B6
:1002A800950183128101FF3083169000813081000F
:1002B800E0308B0003308500640083123508803AF3
:1002C800DF0081305F02031D6B292C303402031CD0
:1002D8006E296F29F6298312B401B5012C228312E5
:1002E8004B08B3004A08B200003033025B300319F0
:1002F8003202031C80298129B829043033020030D6
:1003080003193202031889298A29B8294008031DCC
:100318008E298F29B8293E08031D93299429B829C5
:100328000130C3070318C40A0030C4070130BA00FB
:1003380043034404031DA129A229A5290130BF00B4
:10034800CE294408803ADF0080305F02031DAE29C1
:1003580005304302031CB129B229CE290430831287
:10036800C3000030C400CE29003033025B300319CB
:1003780032020318C029C129CE29003033020B30BC
:1003880003193202031CC929CA29CE290130A40045
:100398000030A50083123F03031DD329D429F62971
:1003A8000130AE070318AF0A0030AF072F08803AB4
:1003B800DF0080305F02031DE32910302E02031C8A
:1003C800E629E729F6298312BF01AE01AF01031020
:1003D800430DB000440DB1004308BD00C301C40182
:1003E8000130C000831224032504031DFC29FD29C4
:1003F80060290030A3000030A2000030A1000030C6
:10040800A000B801B901B601B701B401B501C20134
:10041800C101B201B301C001B001B101C301C401FE
:10042800BF01AE01AF01BE01AC01AD01AA01AB0134
:10043800BD01D030CC000730CD00BC01A801A90116
:10044800BB01BA01A601A701A401A50160290D28D5
:1004580083129F149F18312A322A2E2A1E08CB0095
:1004680083161E088312CA00080064008001840AEB
:0E04780004060319003404063A2AD03407346F
:02400E009C31E3
:00000001FF
