:020000000D28C9
:10000800DE00030E8312C6000A08C7005F08C80096
:1000180015280E288313203084004430AA21830138
:10002800EA280B1D18281928E2280130BE070318F2
:10003800BF0A0030BF070130BC070318BD0A0030F3
:10004800BD072C032D04031D2A282B284B2801301B
:10005800AA070318AB0A0030AB072A082402C40019
:100068002B08031C2B0A2502C5004508803ADF002F
:1000780080305F02031D42280130440203184528DE
:1000880046284B288312A401A501AC01AD018312B7
:100098003F08803ADF0080305F02031D5528C830D2
:1000A8003E02031C582859287C288312320833043E
:1000B80003195F2860287C2834033504031D65284C
:1000C80066287C28FF30B2070318B30AFF30B3074D
:1000D8003A033B04031D712872287528BA01BB0135
:1000E80079280130BA000030BB00BE01BF01C12829
:1000F80083123308803ADF0080305F02031D8628B0
:1001080001303202031889288A28C128831234034F
:100118003504031D90289128C128B201B301B40108
:10012800B5010130AC000030AD00043026062704CC
:10013800031D9F28A028A5284030A4001F30A50033
:10014800C128033026062704031DAB28AC28B12894
:100158007030A4001730A500C128023026062704F5
:10016800031DB728B828BD28A030A4000F30A5006B
:10017800C128D030A4000730A50083123A033B04FD
:10018800031DC728C828D1282C082D04031DCD28F5
:10019800CE28D12885160515DF283A083B04031D0B
:1001A800D628D728DF282C082D04031DDC28DD28B5
:1001B800DF28851205110B11063081004808470811
:1001C8008A00460E8300DE0E5E0E09000730831299
:1001D8009900113083169F00813083129F00831687
:1001E800950183128101FF308316900081308100D0
:1001F800E0308B000330850083123D08803ADF0031
:1002080081305F02031D0A292C303C02031C0D2992
:100218000E2981298312BC01BD019D2183124A0840
:10022800B7004908B600003037025B3003193602C0
:10023800031C1F29202953290430370200300319D1
:100248003602031828292929532934083504031D9F
:100258002E292F2953290130C2070318C30A003059
:10026800C30742034304031D3A293B2940290130AF
:10027800B0000030B10053294308803ADF008030D5
:100288005F02031D492905304202031C4C294D29F0
:10029800532904308312C2000030C300532983124B
:1002A80030033104031D59295A2981290130AE0729
:1002B8000318AF0A0030AF072F08803ADF008030FC
:1002C8005F02031D692910302E02031C6C296D2959
:1002D80081298312B001B101AE01AF010310420DB3
:1002E800B200430DB3004308A7004208A600C201AC
:1002F800C3010130B4000030B50083122C032D0473
:10030800031D8729882990292408250403198D2984
:100318008E2990298516002924082504031D95296E
:10032800962900298512AC01AD01AA01AB0100296B
:100338000D2883129F149F18A229A3299F291E08FC
:10034800CA0083161E088312C900080064008001D1
:0C035800840A0406031900340406AB29D3
:02400E009431EB
:00000001FF
