:020000000D28C9
:10000800DE00030E8312D2000A08D3005F08D40072
:100018008B290E28D722DB00D822DC00831320305E
:1000280084005030CF2283011928073083129900A9
:10003800213083169F00813083129F00831695011B
:100048008312810180308316900081308100E03076
:100058008B0003308500640083123F08803ADF007C
:1000680080305F02031D3A2814303E02031C3D28ED
:100078003E2848298312BE01BF012B08AD002A087B
:10008800AC002908AB002808AA00C222831256082F
:10009800A9005508A8002908803AD7002B08803AFB
:1000A8005702031D59282A082802031C5C285D28CA
:1000B8006C2883122D08803AD7002908803A570205
:1000C800031D682828082C0203186B286C288A2826
:1000D80083122908803AD7002D08803A5702031D59
:1000E80077282C082802031C7A287B28902883125A
:1000F8002B08803AD7002908803A5702031D862822
:1001080028082A02031C89288A289028831229088B
:10011800BD002808BC00D72883122B08803AD700D6
:100128002908803A5702031D9B2828082A02031C25
:100138009E289F28AE2883122D08803AD7002B08C6
:10014800803A5702031DAA282A082C020318AD2852
:10015800AE28CC2883122B08803AD7002D08803A85
:100168005702031DB9282C082A02031CBC28BD28E5
:10017800D22883122908803AD7002B08803A5702E0
:10018800031DC8282A082802031CCB28CC28D228FB
:1001980083122B08BD002A08BC00D72883122D081B
:1001A800BD002C08BC0000303D02473003193C025A
:1001B8000318DF28E1280130E2280030D700D801F1
:1001C8005708D9005808DA0000303D0215300319E5
:1001D8003C02031CF028F128FE2800303D0265305F
:1001E80003193C020318F928FA28FE280130AE004A
:1001F8000030AF0059035A04031D03290429432979
:1002080020082104031D09290A2943294B08031D35
:100218000E290F2943294A08031D132914294329A4
:1002280000303D02653003193C02031C1C291D29BE
:1002380043290130CE070318CF0A0030CF07013019
:10024800C6004E034F04031D2A292B2931290130EA
:10025800B8000030B900B601B7014F08803ADF0096
:1002680080305F02031D3A2905304E02031C3D29E8
:100278003E29432904308312CE000030CF00831278
:100288005A08A1005908A00083124108803ADF00EB
:1002980081305F02031D52292C304002031C55296E
:1002A800562982298312C001C10138033904031D6C
:1002B8005E295F2982290130B6070318B70A003082
:1002C800B7073708803ADF0080305F02031D6E29C8
:1002D80015303602031C7129722982298312B8014C
:1002E800B901B601B70103104E0DBA004F0DBB009E
:1002F8004E08C900CE01CF010130CB0083122E0376
:100308002F04031D882989292F2889290D280B1DC9
:100318008E298F29BA2A0130C2070318C30A003070
:10032800C3070130C0070318C10A0030C1070130F4
:10033800BE070318BF0A0030BF074A03031DA529DB
:10034800A629E4290130B4070318B50A0030B50717
:1003580034085B02D0003508031C350A5C02D10062
:100368005108803ADF0080305F02031DBD2901304B
:1003780050020318C029C129E4298312B401B50128
:100388000130B0070318B10A0030B1073108803ACC
:10039800DF0080305F02031DD32990303002031C38
:1003A800D629D729E4298312DB01DC01CA014603D7
:1003B800031DDF29E029E4290130C800C601E4292A
:1003C80083124803031DE929EA290B2A0130B207E1
:1003D8000318B30A0030B307CB013308803ADF00B3
:1003E8008B305F02031DFA29B93032020318FD2948
:1003F800FE29022A01308312C7000B2A8312C70183
:10040800BA01BB01C601B201B301C8010A2A4308F7
:10041800803ADF0080305F02031D142AC830420290
:10042800031C172A182A402A83123B08803ADF0047
:1004380080305F02031D222A01303A02031C252A5C
:10044800262A402A83124B03031D2B2A2C2A402AD2
:10045800FF30BA070318BB0AFF30BB07C201C3014C
:100468003A18372A382A3B2ACD01C701902A013089
:10047800CD000130C700902A83123B08803ADF0084
:1004880080305F02031D4A2A01303A0203184D2AC0
:100498004E2A902A83124B03031D532A542A902A6A
:1004A800CD01C70104304906031D5B2A5C2A612A75
:1004B800A830DB006130DC00832A03304906031DC5
:1004C800662A672A6C2A3E30DB004930DC00832A22
:1004D80002304906031D712A722A772AD430DB00BC
:1004E8003030DC00832A4903031D7B2A7C2A812AB9
:1004F8006A30DB001830DC00832ADB01DC014A08A3
:10050800031D872A882A902A4808031D8C2A8D2AC9
:10051800902A0130CA00CB0183124D03031D952A8E
:10052800962A9B2A4A0803199A2A9B2AAB2A4A0325
:10053800031D9F2AA02AA62A5B085C04031DA52A7E
:10054800A62AAB2A4703031DAA2AAB2AB52A851671
:100558004703031DB02AB12AB32A0515B72A051186
:10056800B72A851205110B1106308100540853086B
:100578008A00520E8300DE0E5E0E090083129F145D
:100588009F18C72AC82AC42A1E08D60083161E0820
:100598008312D500080064008001840A0406031948
:0A05A80000340406D02AD0340734D2
:02400E009C31E3
:00000001FF
