:020000000D28C9
:10000800DE00030E8312D0000A08D1005F08D20078
:100018009A290E284B23DC004C23DD008313203063
:1000280084004E3043238301192807308312990036
:10003800213083169F00813083129F00831695011B
:1000480083128101FF308316900081308100E030F7
:100058008B0003308500640083123D08803ADF007E
:1000680080305F02031D3A2814303C02031C3D28EF
:100078003E28DD288312BC01BD012908AB002808F1
:10008800AA002708A9002608A800362383125408C6
:10009800A7005308A60028082602A4002908031C64
:1000A800290A2702A5002A082602A2002B08031CF9
:1000B8002B0A2702A3002A082802A0002B08031CE9
:1000C8002B0A2902A1002508803ADB002308803A80
:1000D8005B02031D712822082402031C742875285A
:1000E800982883122508803ADB002108803A5B02B1
:1000F800031D802820082402031C832884289828AC
:1001080002308312D3000030D40028082607D50017
:1001180029080318290A2707D600D222831254086F
:10012800BB005308BA00DD2883122308803ADB009D
:100138002508803A5B02031DA32824082202031C19
:10014800A628A728CA2883122308803ADB0021089A
:10015800803A5B02031DB22820082202031CB5283E
:10016800B628CA2802308312D3000030D4002A08E7
:100178002607D5002B0803182B0A2707D600D222FA
:1001880083125408BB005308BA00DD2802308312DA
:10019800D3000030D4002A082807D5002B080318FC
:1001A8002B0A2907D600D22283125408BB00530811
:1001B800BA0083123F08803ADF0081305F02031DD6
:1001C800E7282C303E02031CEA28EB286D2983120D
:1001D800BE01BF0100303B025B3003193A02031C29
:1001E800F628F728302904303B02003003193A0278
:1001F8000318FF28002930294908031D0429052967
:1002080030294808031D09290A2930290130CC075B
:100218000318CD0A0030CD070130C4004C034D044B
:10022800031D172918291D290130B6000030B70011
:1002380043294D08803ADF0080305F02031D2629DC
:1002480005304C02031C29292A294329043083122A
:10025800CC000030CD00432900303B025B3003194D
:100268003A02031838293929432900303B0215304E
:1002780003193A02031C41294229432942298312BE
:1002880036033704031D49294A296D290130B4076B
:100298000318B50A0030B5073508803ADF0080300A
:1002A8005F02031D592910303402031C5C295D29A3
:1002B8006D298312B601B701B401B50103104C0DC5
:1002C800B8004D0DB9004C08C700CC01CD01013074
:1002D800C90083122C032D04031D732974292F28A8
:1002E800C201C301C001C101BE01BF01CB01CA01E6
:1002F800BA01BB01C901B801B901CC01CD01B601F0
:10030800B701B401B501C801B201B301C701D030CA
:10031800DC000730DD00C601B001B101C501C40130
:10032800AE01AF01AC01AD012F280D280B1D9D2991
:100338009E29CA2A0130C0070318C10A0030C10724
:100348000130BE070318BF0A0030BF070130BC07E1
:100358000318BD0A0030BD074803031DB429B52999
:10036800F3290130B2070318B30A0030B307320883
:100378005C02CE003308031C330A5D02CF004F082D
:10038800803ADF0080305F02031DCC2901304E0225
:100398000318CF29D029F3298312B201B301013000
:1003A800AE070318AF0A0030AF072F08803ADF0006
:1003B80080305F02031DE22990302E02031CE529DC
:1003C800E629F3298312DC01DD01C8014403031D7A
:1003D800EE29EF29F3290130C600C401F32983125D
:1003E8004603031DF829F9291C2A0130B007031810
:1003F800B10A0030B107C9013108803ADF008B30FB
:100408005F02031D092AB930300203180C2A0D2A8D
:10041800112A01308312C5001C2A8312C50101303C
:10042800C800B801B901C401B001B101C6011B2A55
:100438004108803ADF0080305F02031D252AC8305A
:100448004002031C282A292A522A83123908803A92
:10045800DF0080305F02031D332A01303802031C9D
:10046800362A372A522A83124903031D3C2A3D2A79
:10047800522AFF30B8070318B90AFF30B9074B03EF
:10048800031D472A482A4B2ACB01C5014F2A0130B0
:10049800CB000130C500C001C101A02A8312390870
:1004A800803ADF0080305F02031D5C2A0130380289
:1004B80003185F2A602AA02A83124903031D652AAC
:1004C800662AA02A04304706031D6B2A6C2A712A63
:1004D8003030DC007530DD00932A03304706031DF9
:1004E800762A772A7C2AE430DC005730DD00932A0C
:1004F80002304706031D812A822A872A9830DC00A9
:100508003A30DD00932A4703031D8B2A8C2A912A4F
:100518004C30DC001D30DD00932ADC01DD01480889
:10052800031D972A982AA02A4608031D9C2A9D2A5B
:10053800A02A0130C800C90183124B03031DA52A54
:10054800A62AAB2A48080319AA2AAB2ABB2A4803B9
:10055800031DAF2AB02AB62A5C085D04031DB52A1C
:10056800B62ABB2A4503031DBA2ABB2AC52A851603
:100578004503031DC02AC12AC32A0515C72A051128
:10058800C72A851205110B1106308100520851083F
:100598008A00500E8300DE0E5E0E09008312D80119
:1005A800D41FD72AD82ADF2AD309D409D30A031992
:1005B800D40A0130D800D61FE22AE32AEA2AD5094C
:1005C800D609D50A0319D60A0130D806D901DA01A5
:1005D800530854040319F12AF22A272B0130D700B3
:1005E800FE2A01300310D30DD40DFF3E031DF62A59
:1005F8000130D707D41F012B022BF52A0130031035
:10060800D90DDA0DFF3E031D032B54085602031DB6
:100618000F2B53085502031C122B132B1A2B5308AC
:10062800D5025408031CD603D6025914013003100E
:10063800D40CD30CFF3E031D1B2B0130D702031D26
:10064800262B272B022B580803192B2B2C2B312B4D
:10065800D909DA09D90A0319DA0A5A08D400590853
:10066800D300080083129F149F183B2B3C2B382B78
:100678001E08D40083161E088312D30008006400E5
:100688008001840A0406031900340406442BD0347C
:02069800073425
:02400E009C31E3
:00000001FF
