:020000000D28C9
:10000800DE00030E8312C6000A08C7005F08C80096
:1000180015280E288313203084004430B82183012A
:1000280012290B1D182819280A290130BE070318A0
:10003800BF0A0030BF070130BC070318BD0A0030F3
:10004800BD072C032D04031D2A282B284B2801301B
:10005800AA070318AB0A0030AB072A082402C40019
:100068002B08031C2B0A2502C5004508803ADF002F
:1000780080305F02031D42280130440203184528DE
:1000880046284B288312A401A501AC01AD018312B7
:100098003F08803ADF0080305F02031D5528C830D2
:1000A8003E02031C582859287C288312320833043E
:1000B80003195F2860287C2834033504031D65284C
:1000C80066287C28FF30B2070318B30AFF30B3074D
:1000D8003A033B04031D712872287528BA01BB0135
:1000E80079280130BA000030BB00BE01BF01C12829
:1000F80083123308803ADF0080305F02031D8628B0
:1001080001303202031889288A28C128831234034F
:100118003504031D90289128C128B201B301B40108
:10012800B5010130AC000030AD00043026062704CC
:10013800031D9F28A028A5284030A4001F30A50033
:10014800C128033026062704031DAB28AC28B12894
:100158007030A4001730A500C128023026062704F5
:10016800031DB728B828BD28A030A4000F30A5006B
:10017800C128D030A4000730A50083123A033B04FD
:10018800031DC728C828CE282C082D040319CD28FC
:10019800CE28DA282C032D04031DD328D428E928D7
:1001A800240825040319D928DA28E92885163A03EA
:1001B8003B04031DE028E12807292C082D04031D12
:1001C800E628E7280729051507293A083B04031DEF
:1001D800EE28EF28F5282C082D040319F428F52813
:1001E800FB2824082504031DFA28FB280729851263
:1001F800051124082504031D022903290729AC0138
:10020800AD01AA01AB010B1106308100480847086F
:100218008A00460E8300DE0E5E0E09000730831248
:100228009900113083169F00813083129F00831636
:10023800950183128101FF3083169000813081007F
:10024800E0308B000330850083123D08803ADF00E0
:1002580081305F02031D32292C303C02031C3529F2
:10026800362928298312BC01BD01AB2183124A0813
:10027800B7004908B600003037025B300319360270
:10028800031C472948297B29043037020030031909
:1002980036020318502951297B2934083504031DD7
:1002A800562957297B290130C2070318C30A003091
:1002B800C30742034304031D6229632968290130E7
:1002C800B0000030B1007B294308803ADF0080305D
:1002D8005F02031D712905304202031C7429752928
:1002E8007B2904308312C2000030C3007B298312AB
:1002F80030033104031D8129822928290130AE07E2
:100308000318AF0A0030AF072F08803ADF008030AB
:100318005F02031D912910302E02031C9429952990
:1003280028298312B001B101AE01AF010310420DBB
:10033800B200430DB3004308A7004208A600C2015B
:10034800C3010130B4000030B50028290D288312FC
:100358009F149F18B029B129AD291E08CA00831619
:100368001E088312C900080064008001840A04067C
:08037800031900340406B92941
:02400E009431EB
:00000001FF
