:020000000D28C9
:10000800DE00030E8312C5000A08C6005F08C70099
:1000180019280E280F22CA001022CB008313203083
:1000280084004330072283014B290B1D1C281D28FF
:1000380043290130B4070318B50A0030B507013069
:10004800B2070318B30A0030B3073C03031D2D2879
:100058002E286C280130AA070318AB0A0030AB071A
:100068002A084A02C3002B08031C2B0A4B02C400AF
:100078004408803ADF0080305F02031D45280130C4
:1000880043020318482849286C288312AA01AB01A7
:100098000130A4070318A50A0030A5072508803AEF
:1000A800DF0080305F02031D5B2890302402031CB0
:1000B8005E285F286C288312CA01CB01BC01380373
:1000C800031D672868286C280130BA00B8016C281D
:1000D80083123A03031D7128722895280130A60758
:1000E8000318A70A0030A707BE012708803ADF00D7
:1000F8008B305F02031D8228B93026020318852839
:1001080086288A2801308312B90095288312B901FC
:100118000130BC00AE01AF01B801A601A701BA01C8
:1001280094283508803ADF0080305F02031D9E283E
:10013800C8303402031CA128A228CB2883122F0818
:10014800803ADF0080305F02031DAC2801302E02A8
:10015800031CAF28B028CB2883123E03031DB52803
:10016800B628CB28FF30AE070318AF0AFF30AF0719
:100178004003031DC028C128C428C001B901C828EC
:100188000130C0000130B900B401B501192983124A
:100198002F08803ADF0080305F02031DD528013028
:1001A8002E020318D828D928192983123E03031DC3
:1001B800DE28DF28192904303B06031DE428E5283A
:1001C800EA283030CA007530CB000C2903303B06D2
:1001D800031DEF28F028F528E430CA005730CB007B
:1001E8000C2902303B06031DFA28FB280029983009
:1001F800CA003A30CB000C293B03031D042905290A
:100208000A294C30CA001D30CB000C29CA01CB0189
:100218003C08031D1029112919293A08031D15291D
:10022800162919290130BC00BE0183124003031DA1
:100238001E291F2924293C08031923292429342984
:100248003C03031D282929292F294A084B04031D8B
:100258002E292F2934293903031D332934293E290E
:1002680085163903031D39293A293C2905154029E2
:1002780005114029851205110B1106308100470828
:1002880046088A00450E8300DE0E5E0E09008316BE
:1002980081150730810407308312990021308316B5
:1002A8009F00813083129F0083169501831281017C
:1002B800FF308316900081308100E0308B000330DE
:1002C8008500640083123308803ADF0081305F02C2
:1002D800031D70292C303202031C732974296529E7
:1002E8008312B201B301FA2183124908B100480808
:1002F800B000003031025B3003193002031C85293D
:100308008629BD2904303102003003193002031850
:100318008E298F29BD293E08031D93299429BD29BB
:100328003C08031D98299929BD290130C1070318E4
:10033800C20A0030C2070130B80041034204031D5D
:10034800A629A729AA290130BD00D0294208803A48
:10035800DF0080305F02031DB32905304102031C12
:10036800B629B729D02904308312C1000030C20051
:10037800D029003031025B30031930020318C52937
:10038800C629D02900303102153003193002031C68
:10039800CE29CF29D029CF2983123D03031DD52982
:1003A800D62965290130AC070318AD0A0030AD071E
:1003B8002D08803ADF0080305F02031DE5291030E8
:1003C8002C02031CE829E92965298312BD01AC0127
:1003D800AD010310410DAE00420DAF004108BB0056
:1003E800C101C2010130BE0065290D2883129F1486
:1003F8009F18FF29002AFC291E08C90083161E0819
:100408008312C800080064008001840A04060319E6
:0A04180000340406082AD03407342B
:02400E009C31E3
:00000001FF
