:020000000D28C9
:10000800DE00030E8312D0000A08D1005F08D20078
:100018009A290E284A23DC004B23DD008313203065
:1000280084004E3042238301192807308312990037
:10003800213083169F00813083129F00831695011B
:1000480083128101FF308316900081308100E030F7
:100058008B0003308500640083123D08803ADF007E
:1000680080305F02031D3A2814303C02031C3D28EF
:100078003E28DD288312BC01BD012908AB002808F1
:10008800AA002708A9002608A800352383125408C7
:10009800A7005308A60028082602A4002908031C64
:1000A800290A2702A5002A082602A2002B08031CF9
:1000B8002B0A2702A3002A082802A0002B08031CE9
:1000C8002B0A2902A1002508803ADB002308803A80
:1000D8005B02031D712822082402031C742875285A
:1000E800982883122508803ADB002108803A5B02B1
:1000F800031D802820082402031C832884289828AC
:1001080002308312D3000030D40028082607D50017
:1001180029080318290A2707D600D1228312540870
:10012800BB005308BA00DD2883122308803ADB009D
:100138002508803A5B02031DA32824082202031C19
:10014800A628A728CA2883122308803ADB0021089A
:10015800803A5B02031DB22820082202031CB5283E
:10016800B628CA2802308312D3000030D4002A08E7
:100178002607D5002B0803182B0A2707D600D122FB
:1001880083125408BB005308BA00DD2802308312DA
:10019800D3000030D4002A082807D5002B080318FC
:1001A8002B0A2907D600D12283125408BB00530812
:1001B800BA0083123F08803ADF0081305F02031DD6
:1001C800E7282C303E02031CEA28EB286D2983120D
:1001D800BE01BF0100303B025B3003193A02031C29
:1001E800F628F728302904303B02003003193A0278
:1001F8000318FF28002930294908031D0429052967
:1002080030294808031D09290A2930290130CC075B
:100218000318CD0A0030CD070130C4004C034D044B
:10022800031D172918291D290130B6000030B70011
:1002380043294D08803ADF0080305F02031D2629DC
:1002480005304C02031C29292A294329043083122A
:10025800CC000030CD00432900303B025B3003194D
:100268003A02031838293929432900303B0215304E
:1002780003193A02031C41294229432942298312BE
:1002880036033704031D49294A296D290130B4076B
:100298000318B50A0030B5073508803ADF0080300A
:1002A8005F02031D592910303402031C5C295D29A3
:1002B8006D298312B601B701B401B50103104C0DC5
:1002C800B8004D0DB9004C08C700CC01CD01013074
:1002D800C90083122C032D04031D732974292F28A8
:1002E800C201C301C001C101BE01BF01CB01CA01E6
:1002F800BA01BB01C901B801B901CC01CD01B601F0
:10030800B701B401B501C801B201B301C701D030CA
:10031800DC000730DD00C601B001B101C501C40130
:10032800AE01AF01AC01AD012F280D280B1D9D2991
:100338009E29C92A0130C0070318C10A0030C10725
:100348000130BE070318BF0A0030BF070130BC07E1
:100358000318BD0A0030BD074803031DB429B52999
:10036800F3290130B2070318B30A0030B307320883
:100378005C02CE003308031C330A5D02CF004F082D
:10038800803ADF0080305F02031DCC2901304E0225
:100398000318CF29D029F3298312B201B301013000
:1003A800AE070318AF0A0030AF072F08803ADF0006
:1003B80080305F02031DE22990302E02031CE529DC
:1003C800E629F3298312DC01DD01C8014403031D7A
:1003D800EE29EF29F3290130C600C401F32983125D
:1003E8004603031DF829F9291B2A0130B007031811
:1003F800B10A0030B107C9013108803ADF008B30FB
:100408005F02031D092AB930300203180C2A0D2A8D
:10041800112A01308312C5001B2A8312C50101303D
:10042800C800B801B901C401B001B101C601410851
:10043800803ADF0080305F02031D242AC830400262
:10044800031C272A282A512A83123908803ADF00F8
:1004580080305F02031D322A01303802031C352A1E
:10046800362A512A83124903031D3B2A3C2A512A62
:10047800FF30B8070318B90AFF30B9074B03031D4B
:10048800462A472A4A2ACB01C5014E2A0130CB0009
:100498000130C500C001C1019F2A83123908803A82
:1004A800DF0080305F02031D5B2A01303802031829
:1004B8005E2A5F2A9F2A83124903031D642A652A3C
:1004C8009F2A04304706031D6A2A6B2A702A303097
:1004D800DC007530DD00922A03304706031D752ABB
:1004E800762A7B2AE430DC005730DD00922A02307D
:1004F8004706031D802A812A862A9830DC003A3074
:10050800DD00922A4703031D8A2A8B2A902A4C3041
:10051800DC001D30DD00922ADC01DD014808031DE6
:10052800962A972A9F2A4608031D9B2A9C2A9F2AB7
:100538000130C800C90183124B03031DA42AA52A50
:10054800AA2A48080319A92AAA2ABA2A4803031D6D
:10055800AE2AAF2AB52A5C085D04031DB42AB52A61
:10056800BA2A4503031DB92ABA2AC42A851645039F
:10057800031DBF2AC02AC22A0515C62A0511C62A84
:10058800851205110B1106308100520851088A00A6
:10059800500E8300DE0E5E0E09008312D801D41FB0
:1005A800D62AD72ADE2AD309D409D30A0319D40AAA
:1005B8000130D800D61FE12AE22AE92AD509D6094E
:1005C800D50A0319D60A0130D806D901DA01530829
:1005D80054040319F02AF12A262B0130D700FD2AEA
:1005E80001300310D30DD40DFF3E031DF52A013051
:1005F800D707D41F002B012BF42A01300310D90D83
:10060800DA0DFF3E031D022B54085602031D0E2B64
:1006180053085502031C112B122B192B5308D50212
:100628005408031CD603D602591401300310D40C05
:10063800D30CFF3E031D1A2B0130D702031D252BB7
:10064800262B012B580803192A2B2B2B302BD909C1
:10065800DA09D90A0319DA0A5A08D4005908D30062
:10066800080083129F149F183A2B3B2B372B1E0828
:10067800D40083161E088312D3000800640080018A
:10068800840A0406031900340406432BD0340734C3
:02400E009C31E3
:00000001FF
