:020000000B28CB
:10000800DE00030E8312AE000A08AF007C280C281D
:100018008313203084002E30B5208301132802304A
:1000280083129900113083169F00813083129F003C
:100038008316950183128101FF3083169000813069
:100048008100E0308B008C15033085002830831246
:100058002A062B04031D312832282A28AA01AB01BD
:10006800352836280000A42083123108A50030085E
:10007800A4003E283F28000083122508803ADF00AC
:1000880081305F02031D4A282D302402031C4D28AD
:100098004E28642883122508803ADF0081305F02E9
:1000A800031D5828C230240203185B285C286428E2
:1000B8008312A801A9010130A6000030A7002A2850
:1000C80083122508803ADF0081305F02031D6E2805
:1000D800C4302402031C712872287A288312A601CE
:1000E800A7010130A8000030A9002A282A280B28D7
:1000F8000B1D7F28802898280130AA070318AB0A0F
:100108000030AB0728032904031D8B288C288E2870
:100118008516952828082904031D932894289528CE
:1001280085120B11063081008C1D9B289C289D2868
:100138008C112F088A002E0E8300DE0E5E0E090039
:1001480083129F14A728A828000083129F18AD289F
:10015800AE28A9281E08B10083161E088312B00015
:10016800080064008001840A0406031900340406A8
:02017800B628A7
:02400E009431EB
:00000001FF
