:020000000D28C9
:10000800DE00030E8312BC000A08BD005F08BE00B4
:10001800AA280E288313203084003C302B2183012A
:100028001528073083129900113083169F008130FC
:1000380083129F008316950183128101FF30831676
:10004800900081308100E0308B00033085008312FE
:100058003508803ADF0081305F02031D35282C30D7
:100068003402031C382839282B288312B401B5011F
:100078001E2183124008AF003F08AE0000302F0257
:100088005B3003192E02031C4A284B287E280430B3
:100098002F02003003192E020318532854287E28F3
:1000A8002C082D04031D59285A287E280130BA0728
:1000B8000318BB0A0030BB073A033B04031D65283D
:1000C80066286B280130A8000030A9007E283B086C
:1000D800803ADF0080305F02031D742805303A0241
:1000E800031C772878287E2804308312BA00003051
:1000F800BB007E28831228032904031D8428852831
:100108002B280130A6070318A70A0030A7072708DD
:10011800803ADF0080305F02031D94280B302602EE
:10012800031C972898282B288312A801A901A60147
:10013800A70103103A0DAA003B0DAB00BA01BB01A1
:100148000130AC000030AD002B280D280B1DAD2868
:10015800AE2816290130B6070318B70A0030B707CA
:100168000130B4070318B50A0030B5073708803ADC
:10017800DF0080305F02031DC328C8303602031C2D
:10018800C628C728EA2883122A082B040319CD2871
:10019800CE28EA282C032D04031DD328D428EA28C6
:1001A800FF30AA070318AB0AFF30AB07320333044A
:1001B800031DDF28E028E328B201B301E728013056
:1001C800B2000030B300B601B701032983122B082F
:1001D800803ADF0080305F02031DF42801302A02D4
:1001E8000318F728F828032983122C032D04031D6C
:1001F800FE28FF280329AA01AB01AC01AD01831237
:1002080032033304031D09290A290C2985161329E9
:1002180032083304031D11291229132985120B11E1
:10022800063081003E083D088A003C0E8300DE0E41
:100238005E0E090083129F149F1823292429202960
:100248001E08C00083161E088312BF000800640041
:0E0258008001840A04060319003404062C29D0
:02400E009431EB
:00000001FF
